:100000006F00003A1300000013000000130000000E
:100010001300000013000000130000001300000094
:100020001300000013000000130000001300000084
:08003000130000007300100032
:100038000000000000000000E0010000E4010000F2
:10004800000000002A03000000000000000000007B
:100058002C0300002E030000000000000000000038
:100068003003000000000000320300000000000020
:100078003403000036030000380300003A03000090
:100088003C0300003E030000400300004203000060
:100098004403000046030000480300004A03000030
:1000A8004C0300004E030000500300005203000000
:1000B8005403000056030000580300005A030000D0
:1000C8005C0300005E0300006003000062030000A0
:1000D8006403000066030000680300006A03000070
:1000E8006C0300006E030000700300007203000040
:1000F8007403000076030000780300007A03000010
:100108007C0300007E0300008003000082030000DF
:100118008403000086030000880300008A030000AF
:100128008C0300008E03000090030000920300007F
:100138009403000096030000980300009A0300004F
:100148009C0300009E030000000000000000000067
:100158000000000000000000000000000000000097
:100168000000000000000000000000000000000087
:0801780000000000000000007F
:10018000397101436EC619A0397141536AC866CAF4
:1001900062CC5ECE19A0397101535AD056D252D4D6
:1001A0004ED64AD826DA22DC06DE3301614082824E
:1001B00041114AC026C222C406C68282B24D410104
:1001C000024D924C224CB24B4101024B924A224AC0
:1001D000B2494101024992442244B2404101828025
:1001E0007300203001A0EFF2BFFC4111854541456D
:1001F000F92EC1473EC6A1477C824C008D4737157A
:1002000001403EC4392C4101F1B7EFF27FFA0945B4
:10021000E92C65217165130505200123E937A14506
:1002200037150140C9241305803E6D29A1453715B6
:100230000140452C1305803E7521D5B7B717024004
:100240009843B706FFF841111367170098C3D843C6
:1002500037060200758FD8C39843B706F7FEFD1620
:10026000758F98C39843B706FCFFFD16758F98C32A
:10027000D843B70681FFFD16758FD8C337079F0097
:1002800098C702C402C69843C166558F98C3B71673
:10029000024005679C42F18F3EC6A24785073EC4D7
:1002A000B24781E7A247E397E7FEB71702409C43B6
:1002B0001397E7006357070685473EC632478547D1
:1002C000631FF704B7170240D843B706C1FFFD16F6
:1002D000D8C3D843D8C3D84313670740D8C3D8433B
:1002E000758FD8C3D843B7062900558FD8C3984314
:1002F000B7060001558F98C3984393166700E3DD56
:1003000006FED843B7160240719BD8C3D843136783
:100310002700D8C32147DC42B18BE39EE7FE4101B1
:10032000828002C661BF01A001A001A001A001A0BE
:1003300001A001A001A001A001A001A001A001A0B5
:1003400001A001A001A001A001A001A001A001A0A5
:1003500001A001A001A001A001A001A001A001A095
:1003600001A001A001A001A001A001A001A001A085
:1003700001A001A001A001A001A001A001A001A075
:1003800001A001A001A001A001A001A001A001A065
:1003900001A001A001A001A001A001A001A001A055
:1003A000970100209381014717810020130181C527
:1003B0001305C076970500209385C5C413868180F8
:1003C00063FAC5008322050023A05500110591059D
:1003D000E3EAC5FE13858180938501816377B500CB
:1003E000232005001105E36DB5FEFD42739002BCAC
:1003F0008D42739042809302800873A0023097026E
:1004000000009382A2C393E2320073905230EFF067
:10041000FFE297020000938282DF73901234730030
:1004200020309C4513F7070113F8F70001C7D841A6
:100430003368E8008E2113F7F50F39C31841814660
:10044000854E3D4F930F800293028004214E3396D8
:10045000DE00B3F8C500631116039398260033132A
:100460001F011343F3FF3377E300B318180133E799
:10047000E800639FF70550C98506E39AC6FD18C1D9
:100480001307F00F6375B70454412146854E3D4F65
:10049000930F800293028004414EB398CE0033F74D
:1004A00015016392E8021317260001173313EF00BA
:1004B0001343F3FFB376D3003317E800D98E639D5F
:1004C000F701232A15010506E319C6FD54C18280F0
:1004D000E39457FA10C94DB7E39757FE2328150147
:1004E000DDB70CC982804CC9828023A4A1808280A0
:1004F000371702405C439146B18B6385D706A1460E
:100500006387D706B7177A00938707201CC1371671
:1005100002405C4237070020130707009183BD8B20
:10052000BA9794231C41B3D7D7005CC15442A1822F
:100530009D8ABA969422B3D6D70014C55442AD8290
:100540009D8A36971823B3D7E7005CC55842398394
:10055000937637001387418036971823B3D7E70285
:100560001CC98280B757E8019387078045B75C4371
:100570005843C166C983BD8B758F8907C546639390
:10058000D700C94701EF3747024003270780418B57
:1005900015CB37177A001307072029A8B716024092
:1005A000D8423706C000718F6319C7003727F4009F
:1005B00013070740B387E70291BFD8429316E700BD
:1005C000E3D906FC37173D0013070790E5B799C537
:1005D000371702401C4F5D8D08CF8280B71702404D
:1005E000984F1345F5FF798D88CF8280EFF25FBC7D
:1005F0001629F577FD17F58FF621DA257971D58F54
:100600001EA95625FD779387379FF58FD6212A841B
:100610002EC6D58F9625D58FB625D58F5EA55E299A
:10062000C207C18393F7F7CFD98F5EA96808C93590
:10063000B747014093870780B2456319F404A25776
:1006400056246547B387E702C206C186984163D145
:100650000604060752244206B3D7E70213074006F2
:100660004186B3D6E702B3F7E70292066354060267
:100670008E0793872703B3D7E70213F77700B36793
:10068000D700C207C1831EA44561A9B692574DBFCA
:100690000A07C9B7920793872703B3D7E702BD8B31
:1006A000D58FC5B791C55E250967D98F5EA58280B4
:1006B0005A25F977FD17F98FD5BFB707002083A713
:1006C000070137177A0013070720B3D7E70293F71C
:1006D000F70F2387F1801307803EB387E702239645
:1006E000F1808280B7F700E0D8438146799BD8C378
:1006F00003D7C1803306A70290CBD4CB98431367AE
:10070000070198C398431367170298C3D843058B12
:1007100075DF9843799B98C38280EFF27FA92A8482
:1007200011650111854511055D35930700207C8217
:10073000371501408D473EC44C00E1471305058045
:100740003EC6C53122C837440140B70708000C082F
:10075000130504803ECC02CA231E0100413D85459D
:0C0760001305048081370561B5B400006A
:10076C00000000000102030401020304060708094B
:08077C0000D8B80502040608CC
:00000001FF
