:100000006F004053130000001300000013000000B5
:100010001300000013000000130000001300000094
:100020001300000013000000130000001300000084
:08003000130000007300100032
:1000380000000000000000006002000064020000F0
:10004800000000007A04000000000000000000002A
:100058007C0400007E040000000000000000000096
:10006800800400000000000082040000000000007E
:100078008404000086040000880400008A0400004C
:100088008C0400008E04000090040000920400001C
:100098009404000096040000980400009A040000EC
:1000A8009C0400009E040000A0040000A2040000BC
:1000B800A4040000A6040000A8040000AA0400008C
:1000C800AC040000AE040000B0040000B20400005C
:1000D800B4040000B6040000B8040000BA0400002C
:1000E800BC040000BE040000C0040000C2040000FC
:1000F800C4040000C6040000C8040000CA040000CC
:10010800CC040000CE040000D0040000D20400009B
:10011800D4040000D6040000D8040000DA0400006B
:10012800DC040000DE040000E0040000E20400003B
:10013800E4040000E6040000E8040000EA0400000B
:10014800EC040000EE040000F0040000F2040000DB
:10015800F4040000F6040000F8040000FA040000AB
:10016800FC040000FE040000000500000205000079
:100178000405000006050000080500000A05000047
:100188000C0500000E050000100500001205000017
:100198001405000016050000180500001A050000E7
:1001A8001C0500001E0500002005000022050000B7
:1001B8002405000026050000280500002A05000087
:1001C8002C0500002E050000300500003205000057
:1001D8000000000000000000000000000000000017
:1001E8000000000000000000000000000000000007
:0801F8000000000000000000FF
:10020000397101436EC619A0397141536AC866CA73
:1002100062CC5ECE19A0397101535AD056D252D455
:100220004ED64AD826DA22DC06DE330161408282CD
:1002300041114AC026C222C406C68282B24D410183
:10024000024D924C224CB24B4101024B924A224A3F
:10025000B2494101024992442244B24041018280A4
:100260007300203001A0EFF2BFFC411185454145EC
:10027000492BC1473EC6A1477C824C008D473715AC
:1002800001403EC42D2E4101F1B7EFF27FFA09453E
:10029000DD2E1D22A92D7165130505204D2DE13799
:1002A000A14537150140F12E13054006B525A1459E
:1002B00037150140E92613054006B92DD5B7B71704
:1002C00002409843B706FFF841111367170098C31F
:1002D000D84337060200758FD8C39843B706F7FE98
:1002E000FD16758F98C39843B706FCFFFD16758FF2
:1002F00098C3D843B70681FFFD16758FD8C39843BE
:10030000B70600ECFD16758F98C33707FF0098C736
:1003100023A6070202C402C69843C166558F98C33C
:10032000B716024005679C42F18F3EC6A24785077B
:100330003EC4B24781E7A247E397E7FEB717024002
:100340009C431397E7006357070685473EC632472D
:100350008547631FF704B7170240D843B706C1FFAC
:10036000FD16D8C3D843D8C3D84313670740D8C3B2
:10037000D843758FD8C3D843B7062900558FD8C343
:100380009843B7060001558F98C3984393166700AA
:10039000E3DD06FED843B7160240719BD8C3D843AD
:1003A00013672700D8C32147DC42B18BE39EE7FEE9
:1003B0004101828002C661BF371602405C423707A6
:1003C00000209146B18B130707026385D700A14631
:1003D0006388D702B7177A00938707201CC3B71723
:1003E0000240DC43918393F6F700B7070020938720
:1003F0000700B69794231C43B3D7D7001CC3828051
:1004000054425042C167C982BD8A7D8E93872600BF
:1004100085CABD466389D702C1466389D702C545EF
:1004200081466393B700C1470DE637460240032675
:100430000680418A15C637167A00130606202DA0BD
:100440008146C947D5B78546B547F9BF8146BD47FF
:10045000E1BF3716024050429315E600E3DD05FC8C
:1004600037163D0013060690B387C7021CC3A5DAF2
:100470001C438583A5B701A001A001A001A001A094
:1004800001A001A001A001A001A001A001A001A064
:1004900001A001A001A001A001A001A001A001A054
:1004A00001A001A001A001A001A001A001A001A044
:1004B00001A001A001A001A001A001A001A001A034
:1004C00001A001A001A001A001A001A001A001A024
:1004D00001A001A001A001A001A001A001A001A014
:1004E00001A001A001A001A001A001A001A001A004
:1004F00001A001A001A001A001A001A001A001A0F4
:1005000001A001A001A001A001A001A001A001A0E3
:1005100001A001A001A001A001A001A001A001A0D3
:1005200001A001A001A001A001A001A001A001A0C3
:1005300001A001A0970100209381C12E1781002006
:10054000130141AC170500001305C54597050020B0
:10055000938545AB1386818063FAC500832205002D
:1005600023A0550011059105E3EAC5FE138581809E
:10057000938501816377B500232005001105E36DA4
:10058000B5FEFD42739002BCAD4273904280B762EB
:1005900000009382820873A00230970200009382C9
:1005A000E2A993E2320073905230EFF05FD19702EC
:1005B00000009382C2CD73901234730020309C45AA
:1005C00013F7070113F8F70001C7D8413368E800B3
:1005D0008E2113F7F50F39C318418146854E3D4FE3
:1005E000930F800293028004214E3396DE00B3F80D
:1005F000C500631116039398260033131F0113439C
:10060000F3FF3377E300B318180133E7E800639F83
:10061000F70550C98506E39AC6FD18C11307F00F08
:100620006375B70454412146854E3D4F930F8002B8
:1006300093028004414EB398CE0033F715016392C4
:10064000E8021317260001173313EF001343F3FFDB
:10065000B376D3003317E800D98E639DF701232AC0
:1006600015010506E319C6FD54C18280E39457FACB
:1006700010C94DB7E39757FE23281501DDB70CC904
:1006800082804CC9828023A4A180828037170240D7
:100690005C439146B18B6385D700A1466382D70640
:1006A000B7177A00938707201CC1371602405C42B7
:1006B00037070020130707019183BD8BBA97942356
:1006C0001C41B3D7D7005CC15442A1829D8ABA961F
:1006D0009422B3D6D70014C55442AD829D8A369772
:1006E0001823B3D7E7005CC55842398393763700A7
:1006F0001387418036971823B3D7E7021CC982803D
:100700005C435843C166C983758FB7F6FF1F83A644
:10071000C670BD8B89071396160163480600C5464F
:1007200001466392D702C94739A88946638FD70229
:10073000BD46638ED702C146638ED702C5460146C9
:100740006393D700C1471DEF374702400327078057
:10075000418B05C737177A0013070720B307F70245
:100760001CC121D61C41858381B701466DBF05465A
:10077000B547D1BF0146BD47F9B737173D0013074D
:100780000790E9BFB7150240D8559316F700D85522
:1007900063DF060411833D8B9306170037177A0039
:1007A000130707203357D70218C1D455A182BD8A39
:1007B0008DE295463307D702058318C137170240EB
:1007C000585714413D8B050733D7E60218C118412D
:1007D00071B785456394B600E546E9BFBD456396AC
:1007E000B600D1463387E602C9BF8906E5BF3D8B17
:1007F0009306170037177A00130707203357D702DD
:10080000F1B799C5371702401C4F5D8D08CF828024
:10081000B7170240984F1345F5FF798D88CF828036
:10082000EFF21FA11629F577FD17F58FF621DA25CE
:100830007971D58F1EA95625FD779387379FF58F40
:10084000D6212A842EC6D58F9625D58FB625D58F4D
:100850005EA55E29C207C18393F7F7CFD98F5EA942
:1008600068082D35B747014093870780B245631963
:10087000F404A25756246547B387E702C206C1862F
:10088000984163D10604060752244206B3D7E70213
:10089000130740064186B3D6E702B3F7E702920694
:1008A000635406028E0793872703B3D7E70213F733
:1008B0007700B367D700C207C1831EA4456159BA48
:1008C00092574DBF0A07C9B7920793872703B3D73B
:1008D000E702BD8BD58FC5B791C55E250967D98F56
:1008E0005EA582805A25F977FD17F98FD5BFB70726
:1008F000002083A7070237177A0013070720B3D712
:10090000E70293F7F70F2387F1801307803EB38741
:10091000E7022396F1808280B7F700E0D843814652
:10092000799BD8C303D7C1803306A70290CBD4CB21
:1009300098431367070198C398431367170298C336
:10094000D843058B75DF9843799B98C38280EFF27B
:100950003F8E2A8411650111854511055D35930788
:1009600000207C82371501408D473EC44C00E14792
:10097000130505803EC6A13122C837440140B707A0
:1009800008000C08130504803ECC02CA231E010097
:10099000413D8545130504808137056165B8000038
:1009A000000000000000000001020304060708091F
:1009B0000000000001020304010203040607080905
:0809C00000D8B8050204060886
:00000001FF
